:1000000012C019C018C017C016C015C014C013C044
:1000100012C011C010C00FC00EC00DC00CC00BC06C
:100020000AC009C008C011241FBECFE5D4E0DEBF5E
:10003000CDBF02D035C0E4CFB89A87B387BBA59AAD
:1000400084B384BBC09A80E197E229E130E0F901F2
:100050003197F1F70197D9F7C098AD9A80EA85BF3B
:1000600081E487B987EA86B9369A41E029E130E030
:1000700085B78F7785BF84B195B151E08D329507F3
:1000800010F048BB04C08C52914009F018BA80E2CD
:100090009EE4F9013197F1F70197D9F78895E8CFF8
:0400A000F894FFCF02
:00000001FF
