:1000000012C019C018C017C016C015C014C013C044
:1000100012C011C010C00FC00EC00DC00CC00BC06C
:100020000AC009C008C011241FBECFE5D4E0DEBF5E
:10003000CDBF02D027C0E4CFB89A87B387BBA59ABB
:1000400084B384BBC09A80E197E229E130E0F901F2
:100050003197F1F70197D9F7C098AD9A8BB78064C3
:100060008BBF15BE789481E487B987EA86B9369A42
:1000700021E084B195B18D52914010F028BBF9CFA9
:0800800018BAF7CFF894FFCF86
:00000001FF
